:020000040800F2
:100000003854002055020008092D0008912A0008E4
:10001000052D00084D050008E93400080000000027
:10002000000000000000000000000000812D00081A
:10003000C106000800000000112D0008AD2D0008C9
:100040006F0200086F0200086F0200086F020008CC
:100050006F0200086F0200086F0200086F020008BC
:100060006F0200086F0200086F0200086F020008AC
:10007000850600086F0200086F0200086F02000882
:100080006F0200086F0200086F0200086F0200088C
:10009000510500086F0200086F0200086F02000897
:1000A0006F0200086F0200086F0200086F0200086C
:1000B0006F0200086F0200086F0200086F0200085C
:1000C0006F0200086F0200086F0200086F0200084C
:1000D0006F020008C53400086F020008D134000820
:1000E0006F0200086F0200086F0200086F0200082C
:1000F0006F0200086F0200086F0200086F0200081C
:100100006F0200086F0200086F0200086F0200080B
:100110006F0200086F0200086F0200088D2E0008B1
:100120006F020008910600089D0600086F02000893
:100130006F0200086F0200086F0200086F020008DB
:100140005D0500086F0200086F0200086F020008DA
:100150006F020008A9060008B5060008DD34000893
:100160006F0200086F0200086F0200086F020008AB
:100170006F0200086F0200086F0200080000000014
:100180006F0200086F02000800F002F800F052F859
:1001900014A696E8000CB244B344DA4501D100F04D
:1001A00049F8BAE80F000FA696E83000A5EB040561
:1001B00004EB0607AAEB0704A7F101074FEA1515A0
:1001C0004FEA3414A4F10104AC4201D300F032F838
:1001D00013F0010F18BFFB1A43F0010300F001F800
:1001E000DBE7184798530000B8530000103A24BFCB
:1001F00078C878C1FAD8520724BF30C830C144BF8C
:1002000004680C6070470000704700000023002461
:1002100000250026103A28BF78C1FBD8520728BF16
:1002200030C148BF0B6070471FB505F06DF91FBDA9
:1002300010B510BD00F04FF91146FFF7F5FF03F0C0
:1002400055F900F06DF903B4FFF7F2FF03BC00F0BD
:1002500075F900000948804709480047FEE7FEE7B6
:10026000FEE7FEE7FEE7FEE7FEE7FEE7FEE7FEE766
:1002700004480549054A064B70470000792E0008DE
:1002800089010008384E00203854002038500020E2
:100290003850002053EA020C00F069802DE9F04B41
:1002A0004FF00006002B1FBFB3FA83F503FA05F4E5
:1002B00024FA05F65E4012BF1643B2FA82F502FA3E
:1002C00005F4C5F120051EBF22FA05FC44EA0C0422
:1002D000203556EA044C4FEA144418BF641C4FF012
:1002E00000084FF00009904271EB030C39D300294C
:1002F00019BFB1FA81F701FA07F6B0FA80F700FAF0
:1003000007F6C7F120071EBF20FA07FC46EA0C06D5
:100310002037B6FBF4FCA7EB0507103F07F01F0BD7
:10032000CBF120062CFA06F60CFA0BFB44BFB346C1
:100330000026202FA4BF5E464FF0000B5BEA060CA0
:1003400008BF4FF0010B19EB0B0948EB0608ABFB9C
:10035000027C06FB02CC0BFB03CCC01B71EB0C0137
:10036000C1E70B46024641464846BDE8F08B13B54F
:10037000084318BF4FF0FF300146AFF30080BDE8DF
:100380001C407047032A40F2308010F0030C00F04C
:10039000158011F8013BBCF1020F624498BF11F8BF
:1003A00001CB00F8013B38BF11F8013BA2F1040278
:1003B00098BF00F801CB38BF00F8013B11F00303F0
:1003C00000F05780083AC0F0088051F8043B083A22
:1003D00051F804CBA0E80810F5E7121D5CBF51F8F6
:1003E000043B40F8043BAFF30080D20724BF11F870
:1003F000013B11F801CB48BF11F8012B24BF00F8D5
:10040000013B00F801CB48BF00F8012B704702F018
:10041000FF0343EA032242EA024200F002B84FF02F
:10042000000200B5134694469646203922BFA0E844
:100430000C50A0E80C50B1F12001BFF4F7AF090750
:1004400028BFA0E80C5048BF0CC05DF804EB890041
:1004500028BF40F8042B08BF704748BF20F8022B84
:1004600011F0804F18BF00F8012B7047704770479C
:10047000704710B5203AC0F00B80B1E81850A0E8E2
:100480001850B1E81850A0E81850203ABFF4F5AF62
:100490005FEA027C24BFB1E81850A0E8185044BFBE
:1004A00018C918C0BDE810405FEA827C24BF51F82B
:1004B000043B40F8043B08BF7047D20728BF31F81F
:1004C000023B48BF11F8012B28BF20F8023B48BF70
:1004D00000F8012B7047754600F02CF8AE46050079
:1004E0006946534620F00700854618B020B5FFF74F
:1004F000BFFEBDE820404FF000064FF000074FF070
:1005000000084FF0000BAC46ACE8C009ACE8C009ED
:10051000ACE8C009ACE8C00921F007018D4670477E
:1005200010B50446AFF300802046BDE81040FFF749
:100530008ABE0000004870471000002001491820C2
:10054000ABBEFEE72600020070470000FEE7000099
:1005500040F29820C2F2000000F052B940F2C020F0
:10056000C2F2000000F04CB940F24C10C2F20000A0
:1005700090ED0F0A90ED001A9FED3F7A30EE411A90
:10058000B5EE401AF0EE470A90ED042A90ED083AD5
:1005900090ED0C4A9FED376AF1EE10FAC8BFF0EE0D
:1005A000460A71EE200AB0EEC15AF0EEE01AF4EEFF
:1005B000451AC0ED010A80ED021AF1EE10FAB8BF3B
:1005C000B0EE601A90ED105AF0EE470A35EE422A6E
:1005D000B5EE402A80ED031AF1EE10FAC8BFF0EE36
:1005E000460A72EE200AF0EEE01AF0EEC22AF4EEAD
:1005F000621AC0ED050A80ED062AF1EE10FAB8BFC6
:10060000B0EE602AD0ED110A80ED072A30EEC33A31
:10061000B5EE403AF1EE10FAC8BFB0EE467A33EECE
:10062000076AB0EEC67AF0EEC31AB4EE617A80EDD6
:10063000096A80ED0A3AF1EE10FAB8BFB0EE463A18
:1006400031EE041A90ED0D4A80ED0C1A32EE041AC8
:1006500090ED0E2A80ED0D1A33EE021A80ED0B3A62
:1006600080ED0E1A80ED000A80ED045AC0ED080AF4
:10067000704700BF0000B4C30000B4430F2104F072
:100680009FB8000040F2A830C2F2000000F084BC25
:1006900040F20840C2F2000000F07EBC40F2E820C8
:1006A000C2F2000000F078BC40F26840C2F20000E4
:1006B00000F072BC40F24830C2F2000000F06CBCA6
:1006C0007047000072B600BFFEE7000070470000F0
:1006D000B0B590F82040013C012C7DD8D0F800C086
:1006E00000290CBFDCF80C40DCF81040A4077DD0DA
:1006F0000CF5D8754FEA011C55F80C4014F00404B1
:10070000946055F80CE005EB011C19BF4FEADE05BB
:1007100055604FEA5E551560DCF80050E64605F07E
:100720000205D5605EF8044F24075ABFDEF800408A
:1007300004F00F0408241461DEF800400029C4F31B
:1007400007249461DEF800504FEA15455561DCF846
:1007500008201A70026802EB0112D2F8B8214FEAA1
:1007600012225A70026802EB0112D2F8B8214FEA45
:1007700012429A70026802EB0112D2F8B8214FEAD5
:100780001262DA70026802EB0112D2F8BC211A710F
:10079000026802EB0112D2F8BC214FEA12225A7110
:1007A000026802EB0112D2F8BC214FEA12429A71A0
:1007B000026802EB0112D2F8BC214FEA1262DA7130
:1007C00000680CBF00F10C0100F110010020202294
:1007D0000B681A430A60B0BD00F1240101204FF4F8
:1007E00080220B681A430A60B0BD00BF00F12401EB
:1007F00001204FF400120B681A430A60B0BD0000DC
:100800002DE9F04F81B0044600684669D0F80490A5
:100810008768D0F80CB0D0F810A0D0F81880F10795
:1008200004D1002530071DD424E000BFF90710D003
:100830000121BA07816009D4780700F1AF80380739
:1008400000F1B680204600F03FFB02E0204600F0B9
:100850003DFB0025F80500F18780F80300F1B18029
:10086000300707D51BF0100004D0206845F4007550
:100870001021C160700708D51BF0080005D0206862
:100880000821C160204600F0F5F9B00706D52068C0
:10089000C068800702D0204600F0EEF9700607D548
:1008A0001AF0100004D0206845F480651021016121
:1008B000B00608D51AF0080005D0206808210161AB
:1008C000204600F0FBFAF00606D520680069800794
:1008D00002D0204600F0F4FAB00308D519F0100059
:1008E00005D0206810214160204600F0EBFAF003AB
:1008F00008D519F0080005D020680821416020467D
:1009000000F0EEFA300440F19B805FEA497040F15C
:10091000948006F4807008EA102028435FEA88710A
:10092000014648BF41F00201B20558BF01465FEAE7
:1009300048700D4648BF45F00405700558BF0D4688
:10094000300540F17A8018F0700000F076801038A1
:10095000000905286CD8DFE800F003655D6159697E
:1009600045F0080564E000BF20684FF48071BA05C7
:1009700081600BD4780515D438051DD4204600F0CD
:10098000A7FAF8037FF56CAF1BE000BF204600F02C
:10099000A1FAF8037FF564AF13E000BF4FF40065E0
:1009A00058E700BF05F50055F8037FF559AF08E09B
:1009B0004FF480554EE700BF05F58045F8037FF5FD
:1009C0004FAF20684FF48031BA0381600AD47803B6
:1009D00010D4380314D4204600F07EFA30073FF5D7
:1009E00041AF47E7204600F079FA30073FF53AAFCC
:1009F00040E700BF05F5004530073FF533AF39E765
:100A000005F5803530073FF52DAF33E745F080051C
:100A10000EE000BF45F020050AE000BF45F04005AC
:100A200006E000BF45F0100502E000BF45F4807508
:100A30002068816921F07001816120680421416092
:100A400055B1606A40EA05012046616201B0BDE827
:100A5000F04FFFF73BBE00BF01B0BDE8F08F0000D4
:100A6000002804BF01207047B0B5044690F820006C
:100A700010B9204600F06EF82068016841F00101CD
:100A8000016000F03FFD054620684168C90705D1B7
:100A900000F038FD401B0B28F6D310E0016821F070
:100AA0000201016000F02EFD054600BF206841688C
:100AB00089070DD500F026FD401B0B28F6D3606A90
:100AC000052140F400306062012084F82010B0BDA0
:100AD000217E0268012922F0800208BF8032026074
:100AE000617E0268012922F0400208BF40320260A4
:100AF000A17E0268012922F0200208BF2032026094
:100B0000E17E0268012922F0100218BF1032026053
:100B1000217F0268012922F0080208BF0832026022
:100B2000617F0268012922F0040208BF04320260DA
:100B3000D4E901C2D4E9033561691A432A43114358
:100B4000ACF101021143C16100200121606284F80F
:100B50002010B0BD10B586B0006846F60002C4F2A1
:100B6000000200219042CDE90411CDE9021101916A
:100B700034D046F20041C4F20001884277D140F2FD
:100B80007021C2F200010A6843F64000C4F202007C
:100B9000531C0B6052B900210091016841F00071B3
:100BA0000160016801F0007100910099002100913D
:100BB00050F8101C142441F0080140F8101C50F8A3
:100BC000100C032100F008000090009840F2004053
:100BD000C4F2020000F5006035E000BF43F64000BB
:100BE000C4F202000091016841F080610160016877
:100BF00001F080610091009940F27021C2F2000181
:100C00000A68531C0B6052B900210091016841F041
:100C100000710160016801F00071009100990021EC
:100C2000009150F8101C402441F0020140F8101CC3
:100C300050F8100C602100F002000090009840F283
:100C40000040C4F2020001910221029100210391AF
:100C5000032104910921059101A900F083FB20469D
:100C60000521002200F00CFD204600F0F7FC06B044
:100C700010BD00007047000070B58AB040F29821A6
:100C8000C2F2000100680968884209D040F2C02120
:100C9000C2F200010968884200F0A8800AB070BD65
:100CA00040F29820C2F2000003AA01AB0021FFF736
:100CB0000FFD40F2A41EC2F2000EDEF80040BDF8A7
:100CC0000610039AA56809BABDF804004FEA114C52
:100CD000BDF808109DF80A30954204BF012525771C
:100CE000E57E00BA09BA000C090C002D6082A4F858
:100CF00016C02183A376D1D10126DEF80450A0824C
:100D0000E676AC68944208BF2E77EC7E6882002CB1
:100D1000A5F816C02983AB76C0D1DEF80840A882BA
:100D2000EE76A568954208BF2677E57E6082002DA5
:100D3000A4F816C02183A376B0D1DEF80C50A082AF
:100D4000E676AC68944208BF2E77EC7E6882002C71
:100D5000A5F816C02983AB76A0D1DEF81040A88292
:100D6000EE76A568954208BF2677E57E6082002D65
:100D7000A4F816C02183A37690D1A082DEF8145087
:100D8000E676AC68944208BF2E77EC7E6882002C31
:100D9000A5F816C02983AB767FF480AFA882EE76E3
:100DA000DEF81840A568954208BF2677E57E608288
:100DB000002DA4F816C02183A3767FF46FAFA08224
:100DC000E676DEF81C50AC68944208BF2E77EA7EC7
:100DD0006882002AA5F816C02983AB767FF45EAF3F
:100DE000A8820120E8760AB070BD00BF40F2C020A2
:100DF000C2F2000003AA01AB0021FFF769FC0398CF
:100E0000B0F5227F3CD0B0F5627F4DD1BDF9040032
:100E1000BDF90610BDF9082000EE100A9FED261A54
:100E200002EE101AB8EEC00AB8EEC22A80EE010A2D
:100E300082EE012A03EE102AB8EEC33A83EE013A9D
:100E400040F20420C2F2000090ED011A90ED024A37
:100E5000027840F28811C2F2000130EE410A32EE0F
:100E6000441A90ED032A81ED000A33EE422A81ED07
:100E7000011A81ED022A7AB1FFF776FB14E000BF78
:100E8000BDF8040040F28811DDF80620C2F200012E
:100E90008881C1F80E2007E0012180ED010A80ED74
:100EA000021A80ED032A017040F27420C2F20000A1
:100EB000012101700AB070BD0000C84270470000F7
:100EC0007047000070470000704700007047000046
:100ED0007047000070470000704700007047000036
:100EE0007047000070B5866D044600F00BFB94F867
:100EF0003510022928D105462068216C026822F0AD
:100F000016020260426922F08002426109B9A16CB6
:100F100019B1016821F008010160016821F00101A7
:100F2000016000BF20680068C00715D000F0EAFA31
:100F3000401B0628F6D320206065032084F8350086
:100F4000002184F8341070BD8020606501200021EC
:100F500084F8341070BD00BFE06D3F2101FA00F04D
:100F6000B060012084F835000020002184F834109E
:100F700070BD000090F83510022909D1052180F8D4
:100F800035100068016821F0010101600020704700
:100F90008021416501207047F0B581B000210091AA
:100FA00040F20801C2F200010B68D0E9166148F274
:100FB000B51537680822C1F64E358A403A42A3FB80
:100FC00005350CD003681C68640708D51C6824F03C
:100FD00004041C60B260426D42F0010242650122CD
:100FE0008A403A4208D003685B691B0604D5B260A8
:100FF000426D42F00202426504228A403A4208D021
:1010000003681B689B0704D5B260426D42F004027E
:10101000426510228A403A4219D001680B681B07CA
:1010200015D5B2600B680A685B0309D4D20509D4F0
:101030000A6822F008020A60016C29B907E000BFC3
:10104000110341D4016C11B1044688472046C26D9A
:10105000202101FA02F33B4243D001680F68FF06EA
:101060003FD5B36090F835700B68052F1CD123F085
:1010700016030B604B6923F080034B61036C0BB9C3
:10108000836C1BB10B6823F008030B603F21914078
:10109000B160012180F83510016D0022002980F82F
:1010A000342054D158E000BF0A685B0310D4D20545
:1010B00012D40A6822F010020A60012180F835106B
:1010C000002180F8341007E0816C0029BCD1BEE714
:1010D000110301D4416C00E0C16B11B10446884793
:1010E0002046416DC1B3416DC9072ED0052180F85E
:1010F00035100168AA0A0B6823F001030B60009BFE
:101100000133934200931AD80B68DB0717D0009B7A
:1011100001339342009312D80B68DB070FD0009B7A
:101120000133934200930AD80B68DB0707D0009B7A
:1011300001339342009302D80B68DB07DFD1012112
:1011400080F83510002180F83410C16C21B101B055
:10115000BDE8F040084700BF01B0F0BD2DE9F04107
:10116000044600F0CFF9ECB10546022084F83500C2
:101170000020216884F83400086820F0010008602D
:1011800021680868C00711D000F0BCF9401B052891
:10119000F6D9032520230320636584F83550BDE884
:1011A000F08100BF0120BDE8F08100BF086848F26F
:1011B0003F02CFF21002D4E9013500EA020C04F13B
:1011C0000C0898E8C10143EA0C032B431843D4E907
:1011D000072E304338431043626A40EA0E00042A67
:1011E00040EA08031CD1206BD4E90A2E40EA0E0025
:1011F000184308604869BEF1000F20F0030040EA80
:10120000020040F0040C11D0B8F5005F36D0B8F100
:10121000000F45D1022A46D0012A3BD032B942E024
:101220000B60486920F0070040EA020C01F0F8006A
:101230004AF6AB221038CAF6AA22A0FB02231A09EA
:1012400045F23A53C1F814C0C0F600039A5C40F26C
:10125000FF335F284FF03F0021EA030100FA02F05C
:1012600088BF0431C4E916128860002301250020DC
:10127000636584F83550BDE8F08100BF032AD5D8F6
:10128000012540230120DFE802F0030E030500BF23
:1012900082E700BFAEF1C070B0FA80F0400904E010
:1012A000032A04D3C2D1CEF300600028BED00125AA
:1012B00040230120636584F83550BDE8F0810000CB
:1012C00090F834C0BCF1010F04BF0220704770B524
:1012D0004FF0010C80F834C0D0F858E090F835C0D9
:1012E000BCF1010F38D14FF0020C80F835C04FF03F
:1012F000000CC0F854C0D0F800C08468056CC06D04
:10130000DCF80060402C26F48026CCF80060CCF895
:1013100004300B4604BF13460A463F2101FA00F091
:10132000CCF80830CCF80C20CEF80800DCF800002F
:1013300040F01600CCF800002DB1DCF8000040F0C1
:101340000800CCF80000DCF8000040F00100CCF808
:101350000000002070BD00BF002180F83410022082
:1013600070BD00002DE9F04F83B000F1200200F1C4
:101370003E4741F60045009207F1FF77C4F20205AF
:1013800008224FEAB726A84208BF072200254FF0DF
:1013900000084FF00009072E38BF4FEAB72201922C
:1013A0000AE000BF09F1010908F10208B9F1100FC4
:1013B00005F1040500F0A2800F68012202FA09FE7F
:1013C00017EA0E0AEED0D1F804C003220CF003078E
:1013D0007E1E02FA08F4012E6FEA040B12D884680C
:1013E000CE6804EA0B0406FA08F6344384604468C5
:1013F00024EA0E06CCF3001404FA09F426434660EE
:1014000004E000BF032F01D103271EE0C6688C68EB
:1014100006EA0B0604FA08F42643022FC66014D12C
:101420006FF00302009E02EA590756F807C005F064
:101430001C040F220B69A2402CEA0202A3401A43AB
:10144000F251D1F804C00CF00307026807FA08F360
:1014500002EA0B021A431CF4403F0260A2D00022B1
:1014600043F644030292C4F202031A6843F60044AE
:1014700042F480421A601A68C4F2010402F4804205
:101480000292029A29F003024FF6084C2244CFF64A
:10149000FF7C52F80C3005F00C070F26BE40B3431A
:1014A000019E06FA07F73B4342F80C30A2684B68EE
:1014B00042EA0A0743F60C4CDE0258BF22EA0A074A
:1014C000A760C4F2010CDCF800209E0242EA0A0781
:1014D00058BF22EA0A07CCF8007062689E0342EA0D
:1014E0000A0758BF22EA0A0767602268DB0342EA5C
:1014F0000A0758BF22EA0A07276053E703B0BDE88E
:10150000F08F000044F23C70C2F2000000687047A7
:1015100040F2000044F23C71C2F20000C2F200014D
:1015200000780A68104408607047000080B543F6F0
:101530000040C4F20200016841F4007101600168DA
:1015400041F480610160016841F480710160032011
:1015500000F0C2F80F2000F005F800F05DF8002060
:1015600080BD000070B586B0002543F640010195AE
:10157000C4F202010A68044642F020020A600968C7
:1015800001A801F0200101910199694600F066F976
:10159000049E002E18BF012600F080F94DF68361ED
:1015A000B040C4F21B31A0FB01014FF0FF3000EB53
:1015B000914140F2C84041F20042C2F20000C4F240
:1015C000000240F2E733C0E90021C0E9025305619F
:1015D000856100F09BFB08B106B070BD40F2C840C9
:1015E000C2F2000000F0C2FB0028F5D1372000F065
:1015F00035F80F2C0CD837202146002200F040F897
:1016000040F204010020C2F200010C6006B070BD7F
:10161000012006B070BD000082B0002043F64001FA
:101620000190C4F202014A6842F480424A604A686A
:1016300002F480420192019A00900868002240F072
:101640008050086008680F2100F0805000900098DA
:101650006FF0010002B000F013B80000002848BF8E
:10166000704700F01F01012202FA01F11C2202EA78
:10167000D0004EF20012CEF20002815070470000FE
:1016800010B54EF60C5CCEF2000CDCF80030C3F363
:10169000022E8EF00704042C28BF0424BEF103039D
:1016A0004FF0FF3E0EFA04F438BF0023A1439940E7
:1016B0000EFA03F39A43114300F00F0200F1604366
:1016C0000901043A03F564436244002848BF02F16B
:1016D0000C03197010BD00004EF60C51CEF2000143
:1016E0000A684FF6FF031A4060F30A2242F0806056
:1016F00040F0FD7008607047002804BF012070476B
:101700002DE9F04143F60808C4F202080446D8F86F
:10171000F8030D4600F00700884207D288F8F85316
:10172000D8F8F80300F00700A84277D120688107B5
:1017300017D5410705D5D8F8001041F4E051C8F895
:101740000010010705D5D8F8001041F46041C8F831
:101750000010D8F80010A26821F0F0011143C8F879
:101760000010C00740D1D8F8F80300F00700A842E5
:1017700007D988F8F853D8F8F80300F00700A84212
:101780004CD12068410707D5D8F80010E26821F451
:10179000E0511143C8F80010000708D5D8F8000040
:1017A000216920F4604040EAC100C8F8000000F060
:1017B0009DF8D8F8001045F22252C1F30311C0F68B
:1017C0000002515C40F2080220FA01F140F20400EC
:1017D000C2F200000068C2F200021160FFF7C2FE10
:1017E0000020BDE8F08100BF6068811E022907D299
:1017F00058F8081C89015CBF0120BDE8F08111E0A8
:10180000012807D158F8081C89035CBF0120BDE8F6
:10181000F08107E058F8081C890703D40120BDE8CF
:10182000F08100BFD8F8001021F003010843C8F888
:101830000000FFF767FE064641F28837D8F800003F
:10184000616800F00C00B0EB810F8CD0FFF75AFEFE
:10185000801BB842F2D90320BDE8F0810F2202605C
:1018600043F60802C4F20202136803F00303436064
:10187000136803F0F0038360136803F4E053C3605C
:10188000D2F800C04FF4E05303EADC030361D2F85E
:10189000F80300F0070008607047000040F20800FD
:1018A00043F60801C2F20000C4F2020100680968B0
:1018B00045F23252C1F38221C0F60002515CC840A9
:1018C0007047000040F2080043F60801C2F2000031
:1018D000C4F202010068096845F23252C1F3423194
:1018E000C0F60002515CC8407047000010B543F6D6
:1018F0000404C4F20204606800F00C0008280BD055
:10190000042819BF42F20040C0F2F40041F6003052
:10191000C0F2B70010BD00BF2068216823684902EB
:1019200041F60031C0F2B70100F03F02C3F3881066
:101930005CBF42F20041C0F2F401A1FB00010023B0
:10194000FEF7A8FC21680222C1F3014102EB41012C
:10195000B0FBF1F010BD0000002804BF012070476B
:101960002DE9F04182B00446007843F60006C00736
:10197000C4F202060CD0B06800F00C00042840F05D
:1019800081803068800303D56068002800F068819A
:10199000207880071BD5B06810F00C0F09D0B06814
:1019A00000F00C00082840F087807068400200F1C9
:1019B00083803068800703D5E068012840F05081BB
:1019C0003068216920F0F80040EAC10030602078DA
:1019D000000713D4207840072AD4A569002D00F011
:1019E0003A81B06800F00C00082840F0A580012D75
:1019F00040F00E81012002B0BDE8F081606900284E
:101A000000F082800020C4F247200121C0F8801E2F
:101A1000FFF778FD054600BF706F8007DAD4FFF747
:101A200071FD401B0228F7D9032002B0BDE8F08108
:101A3000306C5FEAC0080AD400200190306C40F09E
:101A400080503064306C00F080500190019847F273
:101A50000007C4F200073868C00547D4386840F46E
:101A600080703860FFF74EFD054600BF3868C0053E
:101A70003CD4FFF747FD401B0228F7D9032002B0F2
:101A8000BDE8F081B06800F00C00082803D1706850
:101A900040023FF576AF61683068B1F5803F07D00E
:101AA000B1F5A02F40F09A8040F48020306030687B
:101AB00040F4803030609AE0E068002840F2000096
:101AC000C4F247205CD001210160FFF71BFD0546F1
:101AD000306880073FF574AFFFF714FD401B022804
:101AE000F6D9032002B0BDE8F08100BFA168306FD5
:101AF000012905D0052955D140F004003067306F29
:101B000040F00100306756E00020C4F24720002179
:101B1000C0F8801EFFF7F6FC054600BF706F800717
:101B20007FF558AFFFF7EEFC401B0228F6D90320E3
:101B300002B0BDE8F08100BF0027C4F247270020B3
:101B40003866FFF7DFFC022D05460DD130688001B5
:101B500040F18A80FFF7D6FC401B02284FF00300BB
:101B6000F4D902B0BDE8F0813068800173D5FFF789
:101B7000C9FC401B02284FF00300F5D9F1E700BF74
:101B800000210160FFF7BEFC054600BF30688007FA
:101B90007FF51DAFFFF7B6FC401B02284FF0030096
:101BA000F4D9DEE720F001003067306F002920F023
:101BB000040030677AD0FFF7A5FC054641F288376C
:101BC000306F800700F18480FFF79CFC401BB84217
:101BD000F6D9032002B0BDE8F08100BF20F48030C8
:101BE00030603068002920F4802030607AD0FFF720
:101BF00089FC0546306880033FF5CAAEFFF782FCDA
:101C0000401B6428F6D9032002B0BDE8F08100BF74
:101C10007068E16900F480028A4221D1216A00F0F3
:101C20003F028A421CD147F6C071626A0140B1EBA3
:101C3000821F15D1A16A4FF6FF73C903994300F4BF
:101C40004032A1F580318A420AD1E16A00F0706029
:101C5000B0EB016F04D1002002B0BDE8F08100BFFD
:101C6000012002B0BDE8F08104F11C052FCD08432E
:101C700040EA8210D9034FF6FF729143A1F58031FB
:101C800040EA05600843706001203866FFF73AFCBF
:101C9000044600BF30688001DDD4FFF733FC001B31
:101CA00002284FF00300F5D95BE700BFFFF72AFCDD
:101CB000054641F2883700BF306F800708D5FFF72F
:101CC00021FC401BB8424FF00300F5D949E700BFA3
:101CD000B8F1000F3FF581AE306C20F080503064D9
:101CE0007BE600BFFFF70EFC054600BF30688003AF
:101CF0007FF54EAEFFF706FC401B64284FF0030053
:101D0000F4D92EE77047000070470000002804BF98
:101D10000120704710B5044690F83D0028B9002016
:101D200084F83C00204600F01FF8022084F83D00B3
:101D30002068211D01F0B0F8012084F8460084F8E5
:101D40003E0084F83F0084F8400084F8410084F8A5
:101D5000420084F8430084F8440084F8450084F885
:101D60003D00002010BD00007047000090F83D10BD
:101D700001291CBF01207047022180F83D10006836
:101D800041F2FF72C168C4F20002904241F00101C9
:101D9000C1600DDC40F2FF71C4F20001884215DC25
:101DA000B0F1804F2AD040F20041C4F2000123E09C
:101DB00040F2FF31C4F20101884213DC41F6000118
:101DC000C4F20001884219D0002113E040F600015E
:101DD000C4F20001884211D040F60041C4F2000173
:101DE0000AE000BF44F20001C4F20101884205D0BC
:101DF00040F20041C4F20101884206D1816801F03D
:101E00000701062904BF00207047016841F0010165
:101E100001600020704700007047000070B5044664
:101E20000068C5680669B10716D515F0020113D020
:101E30006FF002010161012121778069800703D0E1
:101E40002046FFF7E9FF05E0204600F08FF8204626
:101E500000F08EF800202077700719D515F00400E7
:101E600016D020686FF0040101610221217780699A
:101E700010F4407F04D02046FFF7CEFF06E000BFFD
:101E8000204600F073F8204600F072F8002020771A
:101E9000300717D515F0080014D020686FF008013E
:101EA000016104212177C069800703D02046FFF734
:101EB000B3FF05E0204600F059F8204600F058F83E
:101EC00000202077F00619D515F0100016D02068F4
:101ED0006FF01001016108212177C06910F4407F83
:101EE00004D02046FFF798FF06E000BF204600F030
:101EF0003DF8204600F03CF800202077F00718BF9E
:101F000015F0010002D1300609D412E020686FF00C
:101F100001010161204600F02DF8300609D515F0C9
:101F2000800006D020686FF0800101612046FFF735
:101F3000E9FE700609D515F0400006D020686FF064
:101F400040010161204600F01FF8B00658BF70BD87
:101F500015F0200008D021686FF0200220460A61A9
:101F6000BDE87040FFF7D0BE70BD000070470000B4
:101F700070470000006841F20041C4F2000188424D
:101F800018BF7047FFF7C4BA7047000090F842309E
:101F9000202B0BD194460A4600294FF0010118BFAF
:101FA000BCF1000F06D10846704700BF0221084669
:101FB000704700BFB0B582B0012101630025222126
:101FC00045638262A0F82CC0456480F84210C36B60
:101FD00043F2651E43F2C524C0F6000EC0F60004AD
:101FE0000168C3E90FE442F6E974C0F60004C3E9EE
:101FF00013450431044618466346FFF761F901951D
:10200000216820460A680192496801910199216975
:1020100031B300BF016851E8031F026841F48071C9
:1020200042E80313E3B1016851E8031F026841F479
:10203000807142E803139BB1016851E8031F0268F5
:1020400041F4807142E8031353B1016851E8031F62
:10205000026841F4807142E80313002BDAD100BF1B
:10206000016851E8051F026841F0010142E80513CB
:10207000BBB3016851E8051F026841F0010142E865
:10208000051373B3016851E8051F026841F00101AF
:1020900042E805132BB3016851E8051F026841F0BF
:1020A000010142E80513002BDAD11AE0016851E87A
:1020B000051F026841F0400142E80513DBB10168E9
:1020C00051E8051F026841F0400142E8051393B151
:1020D000016851E8051F026841F0400142E805131C
:1020E0004BB1016851E8051F026841F0400142E828
:1020F0000513002BDAD1016B012933D100210091A6
:1021000001680A680092496800910099016851E8E5
:10211000031F026841F0100142E80313DBB10168BC
:1021200051E8031F026841F0100142E8031393B124
:10213000016851E8031F026841F0100142E80313EF
:102140004BB1016851E8031F026841F0100142E8F9
:102150000313002BDAD1002102B0BDE8B0400846DD
:10216000704700BF012102B0BDE8B040084670478B
:1021700010B540F25851C2F2000100680968884267
:102180001ED040F21051C2F200010968884218BF07
:1021900010BD40F22424C2F200042046FEF76EFA7D
:1021A00040F21050C2F2000021460F22FFF7EEFE6F
:1021B00040F29020C2F200000121017010BD00BF6A
:1021C00040F22420C2F2000000F10F04204601F08A
:1021D00075FF40F25850C2F2000021461222FFF76C
:1021E000D5FE40F63830C2F200000121017010BD6A
:1021F00070470000B0B582B001680A68CC684B69CE
:1022000002F02F05202D04F0200505D125B102B0E4
:10221000BDE8B04001F062B85FEA027C1EBF03F087
:10222000010E04F4907313EB0E0341D1036BD5063A
:1022300018D5012B16D114F0100313D000220192EF
:102240000A6801924A680192019A496949064BD489
:10225000818DC28DC38D002B18BF914240F0F48157
:1022600002B0B0BD13062DD514F080032AD090F82B
:102270004120212AF4D18268B2F5805F03D102693E
:10228000002A00F06782026A531C036212784A60D7
:10229000C28C013A1304C284E2D1C86820F08000E5
:1022A000C860C86840F04000C86002B0B0BD00BF60
:1022B000D30718BF14F4807340F0D080530700F1A7
:1022C000D380D8E05206CBD514F04002C8D0CA68FB
:1022D00022F04002CA60202180F8411002B0BDE81F
:1022E000B04000F0D3BB00BFC16B0A68526893B224
:1022F000002BB5D0858DAB42B2D2C285C969B1F58C
:10230000807F00F0A080016851E8031F026821F47B
:10231000807142E80313DBB1016851E8031F0268D2
:1023200021F4807142E8031393B1016851E8031F5F
:10233000026821F4807142E803134BB1016851E84F
:10234000031F026821F4807142E80313002BDAD1E5
:10235000016851E8051F026821F0010142E80513F8
:10236000BBB3016851E8051F026821F0010142E892
:10237000051373B3016851E8051F026821F00101DC
:1023800042E805132BB3016851E8051F026821F0EC
:10239000010142E80513002BDAD11AE0016851E887
:1023A000051F026821F0400142E80513DBB1016816
:1023B00051E8051F026821F0400142E8051393B17E
:1023C000016851E8051F026821F0400142E8051349
:1023D0004BB1016851E8051F026821F0400142E855
:1023E0000513002BDAD1202180F84210002101636F
:1023F000016851E8031F026821F0100142E803134D
:10240000DBB1016851E8031F026821F0100142E8C6
:10241000031393B1016851E8031F026821F0100112
:1024200042E803134BB1016851E8031F026821F031
:10243000100142E80313002BDAD1C16B04460846B1
:10244000FEF750FD204602214163818DC28D891A1D
:1024500089B202B0BDE8B040FFF78ABE436C43F0DA
:1024600001034364530706D5BEF1000F03D0436C4C
:1024700043F002034364930706D5BEF1000F03D077
:10248000436C43F004034364BCF1000F06D55EEADD
:10249000050303D0436C43F008034364436C002BF3
:1024A0003FF4DEAE920605D525B1044600F016FFD6
:1024B000216820464969426C01F0400102F008029F
:1024C000891800F0B98000BF016851E8031F026855
:1024D00021F4907142E80313BBB3016851E8031F74
:1024E000026821F4907142E8031373B3016851E864
:1024F000031F026821F4907142E803132BB30168B3
:1025000051E8031F026821F4907142E80313002B85
:10251000DAD11AE0016851E8051F026821F00101D3
:1025200042E80513DBB1016851E8051F026821F09C
:10253000010142E8051393B1016851E8051F0268E3
:1025400021F0010142E805134BB1016851E8051F74
:10255000026821F0010142E80513002BDAD1016B7A
:10256000012924D1016851E8031F026821F01001FC
:1025700042E80313DBB1016851E8031F026821F050
:10258000100142E8031393B1016851E8031F026888
:1025900021F0100142E803134BB1016851E8031F19
:1025A000026821F0100142E80313002BDAD1202148
:1025B00080F842100021016301684969490640F131
:1025C000C380016851E8051F026821F0400142E81C
:1025D0000513DBB1016851E8051F026821F04001D5
:1025E00042E8051393B1016851E8051F026821F024
:1025F000400142E805134BB1016851E8051F02682C
:1026000021F0400142E80513002BDAD1C16B00290B
:1026100000F09A8042F6DD72C0F6000204460846D9
:102620000A65FEF7A7FC00283FF41AAEE06B016DC7
:1026300002B0BDE8B04008470446FFF7D9FD0020CE
:10264000606402B0B0BD00BF891A00BF026852E8E2
:10265000032F036822F4907243E80325BDB3026898
:1026600052E8032F036822F4907243E8032575B300
:10267000026852E8032F036822F4907243E80325AE
:102680002DB3026852E8032F036822F4907243E8E6
:102690000325002DDAD11AE0026852E8052F0368FD
:1026A00022F0010243E80525DDB1026852E8052F5A
:1026B000036822F0010243E8052595B1026852E85B
:1026C000052F036822F0010243E805254DB1026899
:1026D00052E8052F036822F0010243E80525002D8A
:1026E000DAD1202280F8422000220263026852E8F8
:1026F000032F036822F0100243E80325DDB10268CE
:1027000052E8032F036822F0100243E8032595B135
:10271000026852E8032F036822F0100243E8032501
:102720004DB1026852E8032F036822F0100243E81B
:102730000325002DDAD1022289B2426302B0BDE83E
:10274000B040FFF715BD00BF02B0BDE8B040FFF7D5
:102750004FBD00BF026A32F8023B6FF35F234B604C
:10276000026295E5002804BF0120704710B50446B9
:1027700090F8410028B9002084F84000204600F07D
:1027800021F8242084F841002068C16821F4005118
:10279000C160204600F022FE2068016921F49041CA
:1027A0000161416921F02A014161C16841F4005190
:1027B000C16000202021606484F8411084F8421038
:1027C000606310BD2DE9F04F87B00446006844F601
:1027D0000001C4F2000100268842CDE90566CDE97A
:1027E0000366029600F0F68041F20041C4F2010156
:1027F000884200F0878041F20001C4F20101884262
:1028000040F03C81002743F630000197C4F20200FB
:102810004169002541F0100141614169C4F202059E
:1028200001F01001019101990197016802AE41F098
:1028300002010160016846F2280801F002010191DD
:102840000199019701684FF0020941F0010101600F
:1028500000684FF0030A00F0010001900198802009
:1028600002904FF0070B05F580603146C4F2020874
:10287000CDE90397CDF814A0CDF818B0FEF772FD9E
:102880004FF40070CDE9020904A880E8800C2846C6
:102890003146FEF767FD40F2E82508F58360C2F295
:1028A00000054FF000664FF4806985E8C1002846B6
:1028B000C5E90379C5E90577C5E907776F62FEF7D2
:1028C0004DFC002818BFFDF7FDFEE563AC6340F248
:1028D000483508F59260C2F200054021C5E90006BE
:1028E00005F1080080E882022846C5E90577C5E9B8
:1028F00007776F62FEF732FC252600284FF0380775
:1029000065D1B1E043F630000196C4F2020041699E
:1029100046F2280841F0200141614169C4F20208F1
:1029200001F02001019101990196016841F04001F7
:102930000160006802A900F04000019001984FF486
:10294000844002900220CDE9030603200590082070
:1029500006900020C4F2020000F5C050FEF702FD10
:1029600040F2084508F58060C2F200054FF020678C
:102970004FF48069C5E900072846C5E90266C5E944
:102980000496C5E90666C5E90866FEF7E7FB002878
:1029900018BFFDF797FEE563AC6340F2684508F5A4
:1029A0008F60C2F200054021C5E9000705F108006B
:1029B00080E842022846C5E90566C5E907666E62F9
:1029C000FEF7CCFB472600284FF038074CD0FDF728
:1029D00079FE49E043F630000196C4F20200016935
:1029E00041F480210161016901F480210191019983
:1029F0000196016841F004010160006802A900F03D
:102A00000400019001984FF4406002900220CDE94B
:102A1000030603200590072006900020C4F2020060
:102A200000F50060FEF79EFC40F2A83546F2280053
:102A3000C2F20005C4F202004FF000614FF4806260
:102A400085E843002846C5E90362C5E90566C5E98E
:102A500007666E62FEF782FB00284FF027064FF0F4
:102A60003C0718BFFDF72EFE304605210022E55138
:102A7000AC63FEF705FE3046FEF7F0FD07B0BDE89B
:102A8000F08F0000704700007047000070470000A2
:102A9000FEE7000080B540F2982046F20041C2F205
:102AA0000000C4F2000100234FF4802C062280E8CD
:102AB0000E00C0E9033CC0E905338383FDF7D0FF76
:102AC000002808BF80BDBDE88040FDF7FBBD0000C9
:102AD00080B540F2C02046F60001C2F20000C4F208
:102AE000000100234FF4802C062280E80E00C0E98C
:102AF000033CC0E905338383FDF7B2FF002808BF1C
:102B000080BDBDE88040FDF7DDBD000080B582B02E
:102B1000002043F630010190C4F202010A6842F439
:102B200000120A600A6802F400120192019A0090F1
:102B30000868002240F4800008600868052100F45D
:102B40008000009000980C20FEF79AFD0C20FEF704
:102B500085FD392005210022FEF792FD3920FEF780
:102B60007DFD3A2005210022FEF78AFD3A20FEF77E
:102B700075FD452005210022FEF782FD4520FEF768
:102B80006DFD462005210022FEF77AFD462002B0A9
:102B9000BDE88040FEF762BD80B542F6A55045F223
:102BA0004452C0F60000C0F60002002100F0FAFC1A
:102BB00040F29421C2F20001086080BD81B0002182
:102BC00043F630000091C4F20200026842F00202B3
:102BD0000260026802F002020092009A009102680C
:102BE00042F040020260026802F040020092009A45
:102BF0000091026842F001020260026802F00102E4
:102C00000092009A0091026842F008020260026895
:102C100002F008020092009A0091026842F0040259
:102C20000260026802F004020092009A00910168BA
:102C300041F080010160006800F080000090009881
:102C400001B0704780B540F2105041F20001C2F26D
:102C50000000C4F2010100234FF00C0C4FF4E132EC
:102C600080E80E00C0E90333C0E905C3C361FFF784
:102C700079FD002808BF80BDBDE88040FDF722BD7A
:102C800010B540F2585044F6000C48F2A062C2F26F
:102C90000000C4F2000CC0F201024FF48053002186
:102CA0004FF4806E0424C0E900C2C0E90231C0E9DB
:102CB00004E4C0E90611FFF755FD002808BF10BD68
:102CC000BDE81040FDF7FEBC80B540F2A05041F2D7
:102CD0000041C2F20000C4F2010100234FF00C0CCD
:102CE0004FF4E13280E80E00C0E90333C0E905C3C8
:102CF000C361FFF737FD002808BF80BDBDE88040F5
:102D0000FDF7E0BCFEE70000FEE700000000000069
:102D1000EFF30980BFF36F8F154B1A681EF0100F89
:102D200008BF20ED108A20E9F04F10602DE909005E
:102D30004FF0500080F31188BFF34F8FBFF36F8FB8
:102D400001F0D8FC4FF0000080F31188BDE80900C5
:102D500019680868B0E8F04F1EF0100F08BFB0EC1B
:102D6000108A80F30988BFF36F8F704700BF00BFE0
:102D700070000020000000000000000000000000C3
:102D8000074B19680868B0E8F04F80F30988BFF373
:102D90006F8F4FF0000080F31188704700BF00BFB5
:102DA00070000020012000F0BBFBFBE780B54EF275
:102DB0001000CEF20000006802F0BAF9012808BF46
:102DC00080BDBDE8804001F0F3BD000070B592B059
:102DD00006AC20463021FDF722FB002543F64000DB
:102DE0000595CDE90355CDE901550095C4F20200E2
:102DF0000168022641F080510160006800F08050B7
:102E00000090009847F200000095C4F200000168AD
:102E100041F480410160006800F480400090009817
:102E2000012006904FF4803007904FF480000D9001
:102E300006200E90A820CDE90F0604201190204610
:102E40000C96FEF789FD18B172B600BFFEE700BF11
:102E50000F20CDE901064FF4A05004904FF48050AC
:102E6000059001A805210395FEF746FC10B172B646
:102E7000FEE700BF12B070BD4EF68850CEF20000E3
:102E8000016841F4700101607047000040F2C840E1
:102E9000C2F20000FEF7C2BF10B540F6FF3E036865
:102EA000C4F2000E40F2004C7045C4F2010C25DC67
:102EB000B0F1804F2FD040F20042C4F200029042A5
:102EC00029D040F60002C4F20002904223D041F61D
:102ED000FF72C4F20002904227DC70453ADCB0F188
:102EE000804F5BD040F20042C4F20002904255D0C5
:102EF00040F60002C4F200024EE000BF40F600427D
:102F0000C4F20002904206D0604504D00022C4F210
:102F100001029042DBD14A6823F07003134341F66B
:102F2000FF72C4F200029042D7DD43F6FF72C4F292
:102F30000102904220DC42F20002C4F20002904200
:102F40002CD00022C4F20102904227D0604525D047
:102F500028E000BF40F60042C4F2000290421DD0BB
:102F600041F60002C4F20002904217D041F600423E
:102F7000C4F2000210E000BF44F20002C4F20102F9
:102F800090420BD044F60002C4F20102904205D0F8
:102F900044F20042C4F20102904203D1CA6823F411
:102FA0004073134323F080024B69D1F800E08C6832
:102FB0001A430260C46240F48062C0F828E06245AF
:102FC00004BF09690163012141610169C90708BFA3
:102FD00010BD016921F00101016110BD806B00216C
:102FE000C185C184FFF704B9806B01684A6990F814
:102FF0004130212B2DD112F080022AD00021C18432
:10300000016851E8031F026821F0C00142E8031380
:10301000DBB1016851E8031F026821F0C00142E8FA
:10302000031393B1016851E8031F026821F0C00146
:1030300042E803134BB1016851E8031F026821F015
:10304000C00142E80313002BDAD1202180F841109F
:103050000168496990F84220222A40F07D8011F0F1
:10306000400179D00021C185016851E8031F026841
:1030700021F4907142E80313BBB3016851E8031FC8
:10308000026821F4907142E8031373B3016851E8B8
:10309000031F026821F4907142E803132BB3016807
:1030A00051E8031F026821F4907142E80313002BDA
:1030B000DAD11AE0016851E8051F026821F0010128
:1030C00042E80513DBB1016851E8051F026821F0F1
:1030D000010142E8051393B1016851E8051F026838
:1030E00021F0010142E805134BB1016851E8051FC9
:1030F000026821F0010142E80513002BDAD1016BCF
:10310000012924D1016851E8031F026821F0100150
:1031100042E80313DBB1016851E8031F026821F0A4
:10312000100142E8031393B1016851E8031F0268DC
:1031300021F0100142E803134BB1016851E8031F6D
:10314000026821F0100142E80313002BDAD120219C
:1031500080F8421000210163416C41F0100141648C
:10316000FFF746B80168806B0968C90500F19F80C8
:103170000021C185016851E8031F026821F48071B4
:1031800042E80313E3B1016851E8031F026821F428
:10319000807142E803139BB1016851E8031F026884
:1031A00021F4807142E8031353B1016851E8031F11
:1031B000026821F4807142E80313002BDAD100BFCA
:1031C000016851E8051F026821F0010142E805137A
:1031D000BBB3016851E8051F026821F0010142E814
:1031E000051373B3016851E8051F026821F001015E
:1031F00042E805132BB3016851E8051F026821F06E
:10320000010142E80513002BDAD11AE0016851E808
:10321000051F026821F0400142E80513DBB1016897
:1032200051E8051F026821F0400142E8051393B1FF
:10323000016851E8051F026821F0400142E80513CA
:103240004BB1016851E8051F026821F0400142E8D6
:103250000513002BDAD1202180F84210016B0129DF
:1032600025D100BF016851E8031F026821F0100159
:1032700042E80313DBB1016851E8031F026821F043
:10328000100142E8031393B1016851E8031F02687B
:1032900021F0100142E803134BB1016851E8031F0C
:1032A000026821F0100142E80313002BDAD100215B
:1032B0004163016B012918BFFFF7E4BB818DFEF765
:1032C00057BF0000806B01214163016B012918BFCA
:1032D000FFF7DABB818D4908FEF74ABF81B090F84D
:1032E0004210222921D183680246B3F5805F09D1BB
:1032F00052F8281F52F8183C002B63D003685B6813
:103300000AE000BF52F8281F13B90369002BF5D05B
:1033100003685B6803F07F030B7011680131116073
:10332000C18D01390A04C18502D001B0704700BFC8
:103330000168CA6822F02002CA60CA6822F480725A
:10334000CA604A6922F001024A61202180F84210D5
:1033500000214163026B012A3CD10163016851E8FD
:10336000031F026821F0100142E80313DBB101687A
:1033700051E8031F026821F0100142E8031393B1E2
:10338000016851E8031F026821F0100142E80313AD
:103390004BB1016851E8031F026821F0100142E8B7
:1033A0000313002BDAD101680A68D20606D5002281
:1033B00000920A680092496800910099818D01B0DD
:1033C000FEF7D6BE026852686FF35F2221F8022B27
:1033D0008162A5E701B0FFF755BB0000B0B5044618
:1033E000006804F108030ECB0569194325F4405524
:1033F0002A4302616269E3691143C268194349F2D1
:103400000C639A431143C1604169A26921F4407180
:1034100041F20043114340F48062C4F201039A4236
:10342000416103D1FEF74EFA02E000BFFEF736FA23
:10343000E1694FF69C7563681922C0F6FF75B1F516
:10344000004FA0FB02011FD15A00DB0FFCF722FF47
:1034500048F21F51C5F2EB11A0FB01235A0905F1F7
:10346000805302FB0300322303EBC000A0FB0101E9
:103470004FF4F87000EA111000EB0210C1F3421192
:10348000084421688860B0BD9A009B0FFCF702FFDA
:1034900048F21F51C5F2EB11A0FB01235A0902FBB0
:1034A0000500322303EB0010A0FB0101F02000EA2D
:1034B000511000EB0210C1F34311084421688860E9
:1034C000B0BD000040F21050C2F20000FEF792BE04
:1034D00040F25850C2F20000FEF78CBE40F2A050FD
:1034E000C2F20000FEF786BEFEE70000FEF71EF8FF
:1034F000FFF76CFCFFF762FBFFF708FBFFF7CAFA68
:10350000FFF7E6FAFFF7BCFBFFF79CFBFFF7DCFBDE
:1035100000F016F8FFF740FB00F026F8FEE7000089
:10352000EFF3058100291CBF6FF0050070470028EC
:1035300004BF0020704780B500F092FF002080BDDE
:10354000EFF3058000281CBF6FF00500704740F2C4
:103550007820C2F200000168002911BF4FF0FF304F
:103560000121016000207047EFF3058000281CBF97
:103570006FF00500704740F27820C2F20000016849
:1035800001291CBF4FF0FF30704780B54EF61F5128
:10359000CEF2000100220A700221016001F02AF837
:1035A000002080BDF0B585B08C4600230493EFF376
:1035B0000581B0B3A9BB2AB39469002C08BF1824B5
:1035C000382C2ED81179C9072BD15669D2E9025768
:1035D0004FEA960E1168002E734608BF80231DB374
:1035E0005C2F25D312690023002A18BF002E18D0A3
:1035F000CDE9004272466346029501F05DFD05B0DB
:10360000F0BD00BF80231824002104AF9AB26346A6
:10361000CDE9004701F020FD00230499012808BFEF
:103620000B46184605B0F0BD17B91269002AECD058
:103630000023184605B0F0BD2DE9F041044600F026
:10364000F9FD40F27006C2F20006F06840F2D8655B
:103650000130F0603068C2F2000558B130690028CE
:1036600040F007813068E16AC06A884298BF3460E0
:10367000FFE000BF3460F068012840F0FA8028467F
:1036800000F07EFD05F1140000F07AFD05F1280040
:1036900000F076FD05F13C0000F072FD05F15000F0
:1036A00000F06EFD05F1640000F06AFD05F17800A0
:1036B00000F066FD05F18C0000F062FD05F1A00050
:1036C00000F05EFD05F1B40000F05AFD05F1C80000
:1036D00000F056FD05F1DC0000F052FD05F1F000B0
:1036E00000F04EFD05F5827000F04AFD05F58C7086
:1036F00000F046FD05F5967000F042FD05F5A0705E
:1037000000F03EFD05F5AA7000F03AFD05F5B47035
:1037100000F036FD05F5BE7000F032FD05F5C8700D
:1037200000F02EFD05F5D27000F02AFD05F5DC70E5
:1037300000F026FD05F5E67000F022FD05F5F070BD
:1037400000F01EFD05F5FA7000F01AFD05F5027097
:1037500000F016FD05F5077000F012FD05F50C7080
:1037600000F00EFD05F5117000F00AFD05F516706C
:1037700000F006FD05F51B7000F002FD05F5207058
:1037800000F0FEFC05F5257000F0FAFC05F52A7046
:1037900000F0F6FC05F52F7000F0F2FC05F5347032
:1037A00000F0EEFC05F5397000F0EAFC05F53E701E
:1037B00000F0E6FC05F5437000F0E2FC05F548700A
:1037C00000F0DEFC05F54D7000F0DAFC05F55270F6
:1037D00000F0D6FC05F5577000F0D2FC05F55C70E2
:1037E00000F0CEFC05F5617000F0CAFC05F56670CE
:1037F00000F0C6FC05F56B7000F0C2FC05F57070BA
:1038000000F0BEFC05F5757000F0BAFC05F57A70A5
:1038100000F0B6FC05F57F7000F0B2FC05F58260A3
:1038200000F0AEFC05F2244000F0AAFC05F587602C
:1038300000F0A6FC05F24C4000F0A2FC40F2482843
:10384000C2F20008404600F09BFC08F1140738461D
:1038500000F096FC06F1640000F092FC06F13C00DA
:1038600000F08EFC06F1500000F08AFCC6F81C80C7
:1038700037627068716A421CE06A726088426264F2
:1038800088BF706200EB800005EB8000211D00F016
:10389000B9FC00F0F3FC306988B13068E16AC06AB5
:1038A000884228BFBDE8F0814EF60450CEF20000F9
:1038B0004FF080510160BFF34F8FBFF36F8FBDE8B2
:1038C000F081000040F2700540F2D8664EF60458D0
:1038D000C2F20005C2F20006CEF200084FF0805797
:1038E00003E000BF204600F0E1FCA868D0B100F082
:1038F000A1FCA86CC468201D00F014FCE868013825
:10390000E860A8680138A86000F0B8FC94F8590095
:103910000228EAD00128E5D070B9206B00F0C6FC7F
:10392000E0E700BF30680228DFD3C8F80070BFF3BB
:103930004F8FBFF36F8FD8E74FF0500080F311889F
:10394000BFF36F8FBFF34F8FFEE700002DE9F04705
:103950000A9C8246206B16460F46DDE90859910005
:10396000A5229846FCF753FD206B002F00EB860044
:10397000A0F1040020F0070644D0387884F8340021
:10398000D8B3787884F83500B8B3B87884F83600BE
:1039900098B3F87884F8370078B3387984F8380029
:1039A00058B3787984F8390038B3B87984F83A0094
:1039B00018B3F87984F83B00F8B1387A84F83C0001
:1039C000D8B1787A84F83D00B8B1B87A84F83E006E
:1039D00098B1F87A84F83F0078B1387B84F84000D9
:1039E00058B1787B84F8410038B1B87B84F8420044
:1039F00000281CBFF87B84F84300002084F84300B3
:103A000003E000BF002084F834000027201D372D7C
:103A100028BF3725E562C4E9135700F0BDFB04F168
:103A2000180000F0B9FBC5F13800A06130465146DE
:103A3000424624616462676584F8587000F02CFB8C
:103A4000B9F1000F206018BFC9F80040BDE8F08749
:103A500008480068006880F308884FF0000080F391
:103A6000148862B661B6BFF34F8FBFF36F8F00DF6C
:103A700000BF000008ED00E081B00020009040F29F
:103A80000C00C2F2000000684FF0500181F3118871
:103A9000BFF36F8FBFF34F8F013007D0FEE700BF3A
:103AA000009830B9009820B9009810B90098002803
:103AB000F6D001B07047000088B040F2E80AC2F2C8
:103AC000000A0DF11009EB46DAF8080005681DB18F
:103AD000C068046801E000BF002400F003FE01F0AC
:103AE00037FBDAF810100646884220D3002DCAF8BA
:103AF000106051D0A6424FD301F034FCDAF8080030
:103B0000C068C7683D1D284600F00CFB97F82800E8
:103B1000410745D400F0FA0087F8280082E000BF92
:103B20007860DAF8080029463F6100F039FBDAF8DE
:103B30000800016831B3C068C76804683D1D2846A5
:103B400000F0F0FA396A3846884797F828004007AD
:103B5000EDD5B8692044A042E2D8DAF80000002888
:103B600000F04081002004A991C101F0E1FADAF8E7
:103B7000000049460022002300F0A0FF0028D6D113
:103B800030E100BFDAF80C10CAF81060CAE9021080
:103B900001F0E8FB4FE000BF65B1002210E000BF7C
:103BA000B8693F610119B14279601DD90AF1080075
:103BB0001FE000BFDAF80C000068B0FA80F042099C
:103BC000DAF80000A11B00F021FC01F0CBFB90BB58
:103BD0004EF60450CEF200004FF080510160BFF36A
:103BE0004F8FBFF36F8F26E0311B814206D20AF15F
:103BF0000C000068294600F0D3FA13E0DAF8000060
:103C0000002800F00D81002004A991C101F090FA74
:103C1000DAF8000049460022002300F04FFF002898
:103C200000F0FE80396A3846884704E00AF10C0249
:103C3000106800F0B5FADAF800005946002201F0E9
:103C40009DF800283FF440AF0098B0F1FF3F06DC3C
:103C5000DDE901200399904700980028EBD4029EEB
:103C6000706910B1301D00F05DFA01F071FADAF8F8
:103C70001010074688420CD30098CAF81070092823
:103C80003DD9D8E76860DAF8080021462D6100F0D8
:103C900087FADAF80800016841B3C068C568D0F84F
:103CA00000802C1D204600F03DFA296A28468847EE
:103CB00095F828004007ECD5A86940444045E1D874
:103CC000DAF80000002800F083800020CDE9040825
:103CD000069501F02DFADAF800004946002200238B
:103CE00000F0ECFE0028D4D172E000BFDAF80C102E
:103CF000CAE902100098CAF8107009289BD8DFE8BA
:103D000000F005050557415F0505574196F8280065
:103D1000B26940F00101019886F828101318314665
:103D200041F8043FBB42366108D987420AF10802D4
:103D3000BFF47EAF834205D27AE700BF381A9042C3
:103D4000FFF474AF316A3046884796F82800400780
:103D50007FF571AFDAF8000000284DD00198B16905
:103D6000069608440021CDE9041001F0E1F9DAF8E3
:103D7000000049460022002300F0A0FE00287FF446
:103D80005AAF39E096F8280040F00101019886F812
:103D900028100028B06139D0384431460AF10C02AD
:103DA00041F8040F3661B84288BF0AF108023FE7C4
:103DB00096F8280000F0FE0086F828003BE700BFD8
:103DC00096F828008107F5D4304600F06FFA32E704
:103DD0004FF0500080F31188BFF36F8FBFF34F8F08
:103DE000FEE700BF4FF0500080F31188BFF36F8FE4
:103DF000BFF34F8FFEE700BF4FF0500080F31188F4
:103E0000BFF36F8FBFF34F8FFEE700BF4FF050003F
:103E100080F31188BFF36F8FBFF34F8FFEE700BFB2
:103E20004FF0500080F31188BFF36F8FBFF34F8FB7
:103E3000FEE70000F0B581B0044600F0FBF994F90C
:103E40004560012E0FDB04F1240500BF286850B146
:103E5000284601F04DFA002818BF00F04BFBF0B2E5
:103E6000013E0128F2D8FF2684F8456000F006FAEA
:103E700000F0E0F994F94470012F0EDB04F1100515
:103E8000286850B1284601F033FA002818BF00F026
:103E900031FBF8B2013F0128F2D884F8446001B048
:103EA000BDE8F04000F0EAB970B5044600F01AFC35
:103EB00040F2241CC2F2000CDCF8042052B19CF841
:103EC0000000002818BF4FF000404FF0000544BB31
:103ED00081E000BF40F63930C2F20000420700F531
:103EE000705200F1070122F0070218BF21F007000D
:103EF0000021A2F10803CCE90601CCF8043042E924
:103F00000211DCF80420191AC0E9002101208CF804
:103F100000004FF00040CCE90211002C4FF00005EA
:103F200059D0204057D124F0070000F1100360075A
:103F300008BF04F10803DCF80800591E81424AD288
:103F4000604650F818EFDEF804509D422BD2DEF8A0
:103F50000010B9B174464D689D4217D20E68AEB1DB
:103F600075689D4216D23068A0B145689D4215D251
:103F700004689CB165689D4214D22168A646002958
:103F8000E9D110E00CF118000DE000BF8E4620468C
:103F900009E000BFB646084605E000BF8646304649
:103FA00001E000BFA646964514D00268DEF8004046
:103FB000E91A112904604DD30EEB0305680719D0E7
:103FC0004FF0500080F31188BFF36F8FBFF34F8F16
:103FD000FEE700BF002501F0C5F968075AD04FF091
:103FE000500080F31188BFF36F8FBFF34F8F00BF76
:103FF000FEE700BF0CF118006960CEF8043000BF86
:104000000168A9420AD20868A8420BD20168A942F5
:1040100004D208680B46A842F2D304E003460846DF
:1040200001E000BF0B465C6869681E19AE4202D110
:1040300021441D4659606C18844207D1DCF80440C5
:10404000A04203D0D0E9000421446960AB4228605B
:1040500018BF1D60DEF80400DCE9021302F1080558
:10406000091A9942CCF8081038BFCCF80C109CF80B
:10407000001000294FF0000118BF40F00040CEE9C9
:104080000010DCF810000130CCF8100001F06AF9E3
:104090006807A4D1284670BD034643F6792021F075
:1040A0000101C0F600004FF0807C03E903106FF0BF
:1040B0000201A3F1440043E90912704702784178F4
:1040C000837861F30A2240F27C21C2F200010A8067
:1040D000427890F804C0D20863F34A124A80C2784A
:1040E0008378920042EA93126CF38A228A800279E2
:1040F0004379520863F3CA12CA80427992090A725C
:104100004279C2F301124A72C2884A8102898A81C5
:104110004289CA81027B0A74427B4A74C089488200
:10412000704700000169D0E90132D1F804C09A60FB
:104130008445536008BF4A60002202610868013864
:10414000086008687047000044F64013C2F200039C
:10415000036044F24070C2F20000086080201060EA
:104160007047000044F69C53C2F20003036044F61B
:104170009C10C2F2000008604FF48070106070471D
:104180004FF0FF31024642F8081F00214260C0E9AB
:1041900003220160704700000021016170470000A8
:1041A00010B5D1F800C01CF1010213D000F10804D1
:1041B00062681368634511D853681C68644511D858
:1041C0005A68146864450FD854682368A646634546
:1041D000EED90BE00269D2F804E007E096462246E9
:1041E00004E000BF9E4601E096461A46C1F804E08E
:1041F000CEF808108A6051600861016801310160E1
:1042000010BD0000D0F800C0436808619A68C1E999
:104210000132516099600CF10101016070470000AA
:10422000DFF80C00016841F4700101607047000084
:1042300088ED00E04FF0500080F31188BFF36F8FDE
:10424000BFF34F8F40F20C00C2F2000001684A1C1D
:10425000026009B1704700BF4EF60450CEF2000074
:104260000068000608BF70474FF0500080F31188C7
:10427000BFF36F8FBFF34F8FFEE7000040F20C00DB
:10428000C2F20000016839B10139016018BF7047FE
:10429000002080F3118870474FF0500080F31188A0
:1042A000BFF36F8FBFF34F8FFEE7000070B500289C
:1042B00008BF70BD40F22414C2F20004217850F807
:1042C000042C002918BF4FF0004111420ED0A0F17C
:1042D00008052B68A3B14FF0500080F31188BFF39D
:1042E0006F8FBFF34F8F00BFFEE700BF4FF050004E
:1042F00080F31188BFF36F8FBFF34F8FFEE700BFCE
:1043000022EA010140F8041C064600F0EBF956F8D9
:10431000041CA0680844A06004F118000368AB42C4
:104320000AD21868A84225D20368AB4204D21868A2
:104330001A46A842F2D301E0024618465368D6183E
:10434000AE4202D11944154651606B18834206D122
:104350006368984203D0D0E9000319446960AA4217
:10436000286018BF1560606901306061BDE8704069
:1043700000F0F8BF1A465368D618AE42E5D1E1E71F
:104380004EF21000CEF2000000210160816040F288
:104390000801C2F20001096844F6D352C1F2620278
:1043A000A1FB02124FF0FF3101EB92114160072196
:1043B0000160704744F6F85CC2F2000CDCF8003093
:1043C00003B3634653F8082FEAB1634653F8102F3E
:1043D000CAB1634653F8182FAAB1634653F8202F89
:1043E0008AB1634653F8282F6AB1634653F8302FD9
:1043F0004AB15CF8382F002A634608BFC3E90010B1
:10440000704700BF6346C3E90010704770B515469A
:104410000E460446FFF70EFF94F84400FF2804BF41
:10442000002084F8440094F84500FF2804BF0020D1
:1044300084F84500FFF722FFA06B28B12046BDE8B5
:104440007040FFF7F7BC00BF04F1240031462A4654
:1044500000F092F82046BDE87040FFF7EBBC00008A
:1044600070B588B340F27004C2F20004616949B1CA
:104470004FF0500080F31188BFF36F8FBFF34F8F61
:10448000FEE700BF6169064601316161A5692168E7
:1044900004310846FFF746FE2068AD19456005D394
:1044A000206A21680431FFF77BFE08E0E06921689B
:1044B0000431FFF775FEE06A854238BFE56200F01F
:1044C00051FF002818BF70BD4EF60450CEF2000018
:1044D0004FF080510160BFF34F8FBFF36F8F70BDFE
:1044E00040F27001C2F200018A6B0260896941608A
:1044F0007047000040F27000C2F200000121016329
:104500007047000070B5D8B140F27004C2F20004E8
:104510000D4621681831FFF743FEA6692068043074
:10452000FFF700FE681C15D02068AD19456019D34F
:10453000206A21680431BDE87040FFF731BE00BF3A
:104540004FF0500080F31188BFF36F8FBFF34F8F90
:10455000FEE700BF54F8500B011D2046BDE8704037
:10456000FFF750BEE06921680431FFF719FEE06AE9
:10457000854238BFE56270BDF0B581B0C0B140F290
:104580007004C2F200040D46216816461831FFF788
:1045900039FEA76920680430FFF7C4FD96B154F8CE
:1045A000500B011D204601B0BDE8F040FFF72ABEC8
:1045B0004FF0500080F31188BFF36F8FBFF34F8F20
:1045C000FEE700BF2068ED19456007D3206A216827
:1045D000043101B0BDE8F040FFF7E2BDE0692168B9
:1045E0000431FFF7DDFDE06A854238BFE56201B0C6
:1045F000F0BD000010B588B00020CDE9050006A888
:1046000005A904AAFFF7A0FD059800283ED0069C46
:10461000002C45D05C21049A079107995C2949D167
:1046200007992063022084F8590007A80021CDE9EA
:10463000001043F6C500C0F6000028A10023029434
:10464000FFF784F92046FEF7F7FF079840F2700461
:10465000C2F20004A062B0B100F0FCFE411C33D0F5
:10466000012810D14FF0500080F31188BFF36F8FF5
:10467000BFF34F8F4FF0FF30E06201202061002038
:10468000A06100F0D1F808B010BD00BF4FF050009D
:1046900080F31188BFF36F8FBFF34F8FFEE700BF2A
:1046A0004FF0500080F31188BFF36F8FBFF34F8F2F
:1046B000FEE700BF4FF0500080F31188BFF36F8F0B
:1046C000BFF34F8FFEE700BF4FF0500080F311881B
:1046D000BFF36F8FBFF34F8FFEE700BF49444C45D8
:1046E0000000000040F27000C2F200004169013198
:1046F0004161704780B540F2700EC2F2000EDEF8E4
:10470000141019B10121CEF8301080BD0021CEF86F
:104710003010DEF8241040F2D86C01EB8102C2F2B6
:10472000000C5CF82230002B0CEB82030CD0586894
:10473000426803F1080082425A6023D0D068CEF864
:104740000000CEF8241080BD283B19B35A6901EB54
:104750008100002A0CEB800226D101291AD01868AA
:1047600030BB022916D053F8140C28BB032911D0F2
:1047700053F8280C04390028A3F15003E5D028335E
:10478000D5E700BF52685A60D068CEF80000CEF876
:10479000241080BD4FF0500080F31188BFF36F8F5D
:1047A000BFF34F8FFEE700BFA2F114030139BEE74C
:1047B000A2F128030239BAE7A2F13C030339B6E7B4
:1047C00010B5421852F804CCB1F1040E24D00023E5
:1047D00000220021C45C42F00103DBB29E4521446B
:1047E00013D9C45C42F00203DBB29E4521440CD9CC
:1047F000C45C42F00303DBB29E45214405D9C45C8E
:104800000432D3B29E452144E4D8ACEB0100B0FAA7
:1048100080F0400910BD00BF0021ACEB0100B0FAF0
:1048200080F0400910BD0000B0B584B04EF2004CDD
:10483000CEF2000C4CF27021C4F20F11DCF800290A
:104840004B1C9A420AD14FF0500080F31188BFF3FD
:104850006F8FBFF34F8F00BFFEE700BFDCF800296A
:104860008A4209D14FF0500080F31188BFF36F8F57
:10487000BFF34F8FFEE700BF9CF800100291FF21AD
:104880008CF800109CF800108DF807109DF80710A8
:1048900001F0500240F24411C2F200010A700722F6
:1048A0004A609DF90720B2F1FF3F6BDC032200BF95
:1048B000D31C4B609DF8070040008DF807009DF960
:1048C0000700B0F1FF3F24DC931C4B609DF807000C
:1048D00040008DF807009DF90700B0F1FF3F18DC9C
:1048E000531C4B609DF8070040008DF807009DF9B0
:1048F0000700B0F1FF3F0CDC4A609DF80700043A66
:1049000040008DF807009DF90700B0F1FF3FCFDDB3
:10491000131D032B36D14FF44070486002988CF879
:104920000000DCF8200940F47000CCF82009DCF825
:10493000200940F07040CCF82009FFF721FD40F23B
:104940000C04C2F2000400252560FFF769FC4EF656
:104950003470CEF20000016841F040410160FFF781
:1049600077F8FFF7C7FE039520684FF0500181F3F9
:104970001188BFF36F8FBFF34F8F013012D000BF8C
:10498000FEE700BF4FF0500080F31188BFF36F8F38
:10499000BFF34F8FFEE700BF039830B9039820B9EB
:1049A000039810B903980028F6D0002004B0B0BDD9
:1049B00080B54FF0500080F31188BFF36F8FBFF3C5
:1049C0004F8F00F0CBFB30B14EF60450CEF200001A
:1049D0004FF080510160002080F3118880BD0000FD
:1049E00070B582B060B1ABB1F1B9EAB14FF050002F
:1049F00080F31188BFF36F8FBFF34F8FFEE700BFC7
:104A00004FF0500080F31188BFF36F8FBFF34F8FCB
:104A1000FEE700BF4FF0500080F31188BFF36F8FA7
:104A2000BFF34F8FFEE700BF51B14AB94FF05000BE
:104A300080F31188BFF36F8FBFF34F8FFEE700BF86
:104A400050250195019D502D2ED1019C069E0124DB
:104A500083F84640002908BF1A461A60C3E90F01CF
:104A60001C46FFF7E7FB2068D4E90F12002502FB84
:104A70000103013901FB0201A563C4E90103FF2021
:104A8000E16084F8440084F8450004F11000FFF769
:104A900077FB04F12400FFF773FBFFF7EFFB2046E1
:104AA00084F84C6002B070BD4FF0500080F3118864
:104AB000BFF36F8FBFF34F8FFEE700002DE9F04F7C
:104AC00083B00292C0B11D460446F9B1022D02D155
:104AD000E06B01285CD116460F4600F029FB18BB9D
:104AE00016B34FF0500080F31188BFF36F8FBFF300
:104AF0004F8F00BFFEE700BF4FF0500080F31188DA
:104B0000BFF36F8FBFF34F8FFEE700BF206C00280D
:104B1000DCD04FF0500080F31188BFF36F8FBFF3EC
:104B20004F8F00BFFEE700BFFFF784FBA06B022D95
:104B300065D0E16B884262D30298002800F01881AA
:104B40006846FFF7CDFCFFF799FBFFF7CBFDFFF7BA
:104B500071FB94F84400FF2804BF002084F844004F
:104B600094F84500FF2804BF002084F84500FFF7B3
:104B700085FB684602A900F021FA98B12046FFF7AC
:104B800059F900F0EFFB002003B0BDE8F08F00BF43
:104B90004FF0500080F31188BFF36F8FBFF34F8F3A
:104BA000FEE700BF04F11008FFF744FBD4F838908B
:104BB000E66BFFF763FBB14516D102994046FFF75C
:104BC000A1FC2046FFF736F900F0CCFB88B94EF681
:104BD0000450CEF200004FF080510160BFF34F8FC0
:104BE000BFF36F8F05E000BF2046FFF723F900F009
:104BF000B9FBFFF71FFBA06BE16B884266D2A66B87
:104C0000226CDAB139462DB3E068FBF7BBFBE168F3
:104C1000206C2268091A9142E16003D2A1684042E7
:104C20000844E060A81EB0FA80F040093146002E2A
:104C300018BF01210840361A18E000BF2068A8B943
:104C4000A06800F00DFB0021B0FA80F0A1604009DF
:104C50000DE000BF6068FBF795FBD4E90101226C11
:104C600010448842606001D3206860600120711C9C
:104C7000A16354F8241FA9B1204600F039FB50B1BC
:104C80004EF60450CEF200004FF080510160BFF3A9
:104C90004F8FBFF36F8FFFF7F1FA012003B0BDE82C
:104CA000F08F00BF0028F6D14EF60450CEF200007F
:104CB0004FF080510160BFF34F8FBFF36F8FFFF74D
:104CC000DDFA012003B0BDE8F08F00BFE94602AE77
:104CD0000CE000BF2046FFF7ADF800F043FBFFF704
:104CE000A9FAA06BE16B8842FFF489AF0298002813
:104CF0003ED0FFF7C3FAFFF7F5FCFFF79BFA94F8F5
:104D00004400FF2804BF002084F8440094F84500C4
:104D1000FF2804BF002084F84500FFF7AFFA48469B
:104D2000314600F04BF900287FF428AFFFF782FAF4
:104D3000D4F838A0D4F83CB0FFF7A0FADA45C9D1CE
:104D400002994046FFF7DEFB2046FFF773F800F0BC
:104D500009FB0028C3D14EF60450CEF200004FF0FC
:104D600080510160BFF34F8FBFF36F8FB7E700BF74
:104D7000FFF784FA002003B0BDE8F08F2DE9F04F73
:104D800083B0029290B115460446002948D00E46E1
:104D900000F0CEF9A0B99DB14FF0500080F311881A
:104DA000BFF36F8FBFF34F8FFEE700BF4FF0500090
:104DB00080F31188BFF36F8FBFF34F8FFEE700BF03
:104DC000FFF738FAD4F838A0BAF1000F36D0226CC9
:104DD00052B1D4E9023130461144E160994224BF16
:104DE0002168E160FBF7CEFAAAF10100A06354F854
:104DF000100F70B1204600F07BFA50B14EF604500F
:104E0000CEF200004FF080510160BFF34F8FBFF32F
:104E10006F8F0124FFF732FA204603B0BDE8F08F10
:104E2000206C0028B3D04FF0500080F31188BFF3FE
:104E30006F8FBFF34F8F00BFFEE700BF02980028BF
:104E400000F0B4806846FFF74BFBFFF717FAFFF757
:104E500049FCFFF7EFF994F8440004F12408FF2817
:104E600004BF002084F8440094F84500FF2804BFE4
:104E7000002084F84500FFF701FA684602A900F017
:104E80009DF878B12046FEF7D5FF00F06BFAFFF7EA
:104E9000D1F9A56BFFF7F2F92DBB0024204603B032
:104EA000BDE8F08FFFF7C6F9A56BFFF7E7F92DB165
:104EB0002046FEF7BFFF00F055FA14E00299404685
:104EC000FFF720FB2046FEF7B5FF00F04BFA50B984
:104ED0004EF60450CEF200004FF080510160BFF357
:104EE0004F8FBFF36F8FFFF7A5F9D4F838A0BAF151
:104EF000000F7FF46CAF4FF00009EB4602AF13E0F8
:104F00002046FEF797FF00F02DFAFFF793F9A56B07
:104F1000FFF7B4F9002DC0D0FFF78CF9D4F838A012
:104F2000BAF1000F7FF453AF029800283ED0FFF78C
:104F3000A5F9FFF7D7FBFFF77DF994F84400FF28A8
:104F400008BF84F8449094F84500FF2808BF84F80F
:104F50004590FFF793F95846394600F02FF800289E
:104F6000CED1FFF767F9A56BFFF788F935B1204679
:104F7000FEF760FF00F0F6F9CEE700BF0299404669
:104F8000FFF7C0FA2046FEF755FF00F0EBF90028C6
:104F9000C2D14EF60450CEF200004FF080510160B5
:104FA000BFF34F8FBFF36F8FB6E700BF0024FFF74B
:104FB00065F9204603B0BDE8F08F0000B0B548B3F6
:104FC0000C4689B30546FFF735F940F2700CC2F282
:104FD000000CDCF818302268501C2FD0AE46D5E902
:104FE0000050DCF83810A94201D083422ED2181AA2
:104FF000824229D9101A2060DCF838000024CEF84B
:105000000000DCF81800CEF80400FFF737F920465E
:10501000B0BD00BF4FF0500080F31188BFF36F8F19
:10502000BFF34F8FFEE700BF4FF0500080F31188B1
:10503000BFF36F8FBFF34F8FFEE700BF0024FFF772
:105040001DF92046B0BD00BF002020600124FFF7FD
:1050500015F92046B0BD00002DE9F04184B00746A7
:105060009000984615460E46FEF71EFFF8B104461E
:105070005C20FEF719FFB8B1DDE90A2100230463C3
:1050800080F85930CDE900210446384631462A4699
:1050900043460294FEF75AFC2046FEF7CDFA012063
:1050A00004B0BDE8F08100BF2046FFF7FFF84FF0E5
:1050B000FF3004B0BDE8F08170B586B00B9CCCB178
:1050C0000C9E0EB35C250495049D5C2D26D1049D99
:1050D000DDF828C0022586F8595005AD3463CDE9C6
:1050E00000C50296FEF732FC3046FEF7A5FA059899
:1050F00006B070BD4FF0500080F31188BFF36F8F82
:10510000BFF34F8FFEE700BF4FF0500080F31188D0
:10511000BFF36F8FBFF34F8FFEE700BF4FF050001C
:1051200080F31188BFF36F8FBFF34F8FFEE700004E
:1051300040F27000C2F20000016900290FBF012097
:105140004069B0FA80F0400918BF40007047000085
:1051500040F27000C2F20000806970472DE9F04310
:1051600081B040F27006C2F20006706940B1706B07
:10517000002401307063204601B0BDE8F08300BF19
:10518000B06910F10109C6F8189020D3F0690068E1
:1051900050B14FF0500080F31188BFF36F8FBFF311
:1051A0004F8F00BFFEE700BFF069316AF1613062E6
:1051B000B06B0130B063F069006828B1F069C06875
:1051C000C068406802E000BF4FF0FF30F062F06A54
:1051D00040F2D8688145C2F2000801D200242EE0D6
:1051E000F0690024006813E0F86A716A884288BF99
:1051F000706200EB800008EB80002946FFF702F8A0
:10520000F86A3168C96AF269884228BF01241068C7
:1052100090B1F069C068C7683D4655F8040F8145F4
:105220000CD32846FEF77EFFB86A0028DCD007F1D1
:105230001800FEF777FFD7E74FF0FF30F0623068D5
:10524000C06A00EB800058F82000012888BF0124C4
:10525000306B002818BF0124204601B0BDE8F08360
:1052600070B588B140F27005C2F20005296881422C
:105270000CD04FF0500080F31188BFF36F8FBFF355
:105280004F8F00BFFEE700BF002070BD016D29B346
:10529000013901654FF000011DD1C26AC36C9A4209
:1052A00019D0041D06462046FEF73CFFF06CC0F105
:1052B0003801F062B161696A884240F2D86188BF02
:1052C000686200EB8000C2F2000101EB8000214621
:1052D000FEF798FF0121084670BD00BF4FF0500057
:1052E00080F31188BFF36F8FBFF34F8FFEE700008D
:1052F00070B5C068C5686DB105F118042046FEF7A9
:1053000011FF40F27006C2F20006706960B106F14A
:1053100064001AE04FF0500080F31188BFF36F8FE4
:10532000BFF34F8FFEE700BF2C1D2046FEF7FAFEAD
:10533000E86A716A884240F2D86188BF706200EB07
:105340008000C2F2000101EB80002146FEF75AFF07
:10535000E86A3168C96A884292BF00200120306340
:1053600070BD00002DE9F04140F27005C2F2000569
:10537000686968B1FEF75EFF68690138686168694D
:1053800080B10024FEF77AFF2046BDE8F08100BF1F
:105390004FF0500080F31188BFF36F8FBFF34F8F32
:1053A000FEE700BFE8680028EBD0686E88B340F2E3
:1053B000D866C2F200064FF0010800BF286FC76828
:1053C00007F11800FEF7AEFE3C1D2046FEF7AAFED0
:1053D000F86A696A884288BF686200EB800006EB61
:1053E00080002146FEF70EFFF86A2968C96A8842E4
:1053F00028BFC5F83080686E0028DFD1E8690068F2
:1054000020B1E869C068C068406801E04FF0FF3033
:10541000E8626C6B4CB10126FFF7A0FE002818BFB4
:105420002E63013CF8D100206863286B0028A8D0C7
:105430004EF60450CEF200004FF080510160BFF3F1
:105440004F8F0124BFF36F8FFEF718FF2046BDE892
:10545000F081000070B586B0FEF7ECFE40F2E80681
:10546000C2F20006306808BB06F114042046FEF7BD
:1054700087FE06F128052846FEF782FE40F2E85234
:1054800040F28863C6E902450025C2F20002C2F27A
:1054900000030A2010210095FFF7A2FA306028B11E
:1054A00045F27451C0F60001FEF784FFFEF7E6FEF8
:1054B0003068D8B10020CDE9040005A804A903AAEA
:1054C000FEF750FEDDE903200221059DCDE9001025
:1054D00043F6B920C0F6000009A100230295FFF7AA
:1054E000EBFD706010B1012006B070BD4FF05000B0
:1054F00080F31188BFF36F8FBFF34F8FFEE700BFBC
:10550000546D722053766300F1EE100A4FF6FF716E
:10551000C0F2C03120EA010040F04070E1EE100A14
:1055200070470000000000000000010203040607AD
:10553000080900000000010203040006101600061E
:105540001016000068550008000000000000000070
:105550000000000000000000000200001800000031
:10556000000000000000000064656661756C745402
:1055700061736B00546D725100000000A05500086B
:105580000000002010000000EC010008B0550008E9
:1055900010000020285400000C0200080000000049
:1055A00001000000100000000024F400AAAAAAAA2A
:040000050800018965
:00000001FF
